time=2025-04-26T14:06:27.776+08:00 level=INFO msg=Configured api=signer "audit log"=audit.log
time=2025-04-26T14:13:56.970+08:00 level=INFO msg=Version api=signer type=request metadata="{\"remote\":\"NA\",\"local\":\"NA\",\"scheme\":\"ipc\",\"User-Agent\":\"\",\"Origin\":\"\"}"
time=2025-04-26T14:13:56.970+08:00 level=INFO msg=Version api=signer type=response data=6.1.0 error=<nil>
time=2025-04-26T14:43:23.997+08:00 level=INFO msg=List api=signer type=request metadata="{\"remote\":\"NA\",\"local\":\"NA\",\"scheme\":\"ipc\",\"User-Agent\":\"\",\"Origin\":\"\"}"
time=2025-04-26T14:43:28.755+08:00 level=INFO msg=List api=signer type=response data="[0xe3884CF5d8fc59367A9702CA08295685E825D4f5 0x54db8d1344208f57d60E0B87eA02bB6577Fbddda]"
time=2025-04-26T14:44:44.167+08:00 level=INFO msg=List api=signer type=request metadata="{\"remote\":\"NA\",\"local\":\"NA\",\"scheme\":\"ipc\",\"User-Agent\":\"\",\"Origin\":\"\"}"
time=2025-04-26T14:44:46.521+08:00 level=INFO msg=List api=signer type=response data="[0xe3884CF5d8fc59367A9702CA08295685E825D4f5 0x54db8d1344208f57d60E0B87eA02bB6577Fbddda]"
time=2025-04-26T14:44:51.641+08:00 level=INFO msg=SignTransaction api=signer type=request metadata="{\"remote\":\"NA\",\"local\":\"NA\",\"scheme\":\"ipc\",\"User-Agent\":\"\",\"Origin\":\"\"}" tx="{\"from\":\"0xe3884CF5d8fc59367A9702CA08295685E825D4f5\",\"to\":\"0x54db8d1344208f57d60E0B87eA02bB6577Fbddda\",\"gas\":\"0x5208\",\"gasPrice\":null,\"maxFeePerGas\":\"0x7744d640\",\"maxPriorityFeePerGas\":\"0xf4240\",\"value\":\"0xde0b6b3a7640000\",\"nonce\":\"0x0\",\"input\":\"0x\",\"accessList\":[],\"chainId\":\"0x7e7\"}" methodSelector=<nil>
time=2025-04-26T14:45:00.723+08:00 level=INFO msg=SignTransaction api=signer type=response data=<nil> error="could not decrypt key with given password"
time=2025-04-26T14:45:08.283+08:00 level=INFO msg=SignTransaction api=signer type=request metadata="{\"remote\":\"NA\",\"local\":\"NA\",\"scheme\":\"ipc\",\"User-Agent\":\"\",\"Origin\":\"\"}" tx="{\"from\":\"0xe3884CF5d8fc59367A9702CA08295685E825D4f5\",\"to\":\"0x54db8d1344208f57d60E0B87eA02bB6577Fbddda\",\"gas\":\"0x5208\",\"gasPrice\":null,\"maxFeePerGas\":\"0x7744d640\",\"maxPriorityFeePerGas\":\"0xf4240\",\"value\":\"0xde0b6b3a7640000\",\"nonce\":\"0x0\",\"input\":\"0x\",\"accessList\":[],\"chainId\":\"0x7e7\"}" methodSelector=<nil>
time=2025-04-26T14:45:15.358+08:00 level=INFO msg=SignTransaction api=signer type=response data=02f8738207e780830f4240847744d6408252089454db8d1344208f57d60e0b87ea02bb6577fbddda880de0b6b3a764000080c001a0e563ff2169bac952819ffa979a5a558bc5542f1eca23793d699c331b59631ca6a02938efd2cb2eeda008def559a3ac87406beab26d202838d3ad6e9a0116b5459b error=<nil>
time=2025-04-26T14:49:33.399+08:00 level=INFO msg=Version api=signer type=request metadata="{\"remote\":\"NA\",\"local\":\"NA\",\"scheme\":\"ipc\",\"User-Agent\":\"\",\"Origin\":\"\"}"
time=2025-04-26T14:49:33.399+08:00 level=INFO msg=Version api=signer type=response data=6.1.0 error=<nil>
time=2025-04-26T15:02:36.338+08:00 level=INFO msg=Version api=signer type=request metadata="{\"remote\":\"NA\",\"local\":\"NA\",\"scheme\":\"ipc\",\"User-Agent\":\"\",\"Origin\":\"\"}"
time=2025-04-26T15:02:36.338+08:00 level=INFO msg=Version api=signer type=response data=6.1.0 error=<nil>
time=2025-04-26T15:05:34.305+08:00 level=INFO msg=List api=signer type=request metadata="{\"remote\":\"NA\",\"local\":\"NA\",\"scheme\":\"ipc\",\"User-Agent\":\"\",\"Origin\":\"\"}"
time=2025-04-26T15:05:39.703+08:00 level=INFO msg=List api=signer type=response data="[0xe3884CF5d8fc59367A9702CA08295685E825D4f5 0x54db8d1344208f57d60E0B87eA02bB6577Fbddda]"
time=2025-04-26T15:05:39.703+08:00 level=INFO msg=SignTransaction api=signer type=request metadata="{\"remote\":\"NA\",\"local\":\"NA\",\"scheme\":\"ipc\",\"User-Agent\":\"\",\"Origin\":\"\"}" tx="{\"from\":\"0xe3884CF5d8fc59367A9702CA08295685E825D4f5\",\"to\":\"0x54db8d1344208f57d60E0B87eA02bB6577Fbddda\",\"gas\":\"0x5208\",\"gasPrice\":null,\"maxFeePerGas\":\"0x7744d640\",\"maxPriorityFeePerGas\":\"0xf4240\",\"value\":\"0xde0b6b3a7640000\",\"nonce\":\"0x0\",\"input\":\"0x\",\"accessList\":[],\"chainId\":\"0x7e7\"}" methodSelector=<nil>
time=2025-04-26T15:05:47.380+08:00 level=INFO msg=SignTransaction api=signer type=response data=02f8738207e780830f4240847744d6408252089454db8d1344208f57d60e0b87ea02bb6577fbddda880de0b6b3a764000080c001a0e563ff2169bac952819ffa979a5a558bc5542f1eca23793d699c331b59631ca6a02938efd2cb2eeda008def559a3ac87406beab26d202838d3ad6e9a0116b5459b error=<nil>
time=2025-04-26T15:16:26.539+08:00 level=INFO msg=Version api=signer type=request metadata="{\"remote\":\"NA\",\"local\":\"NA\",\"scheme\":\"ipc\",\"User-Agent\":\"\",\"Origin\":\"\"}"
time=2025-04-26T15:16:26.539+08:00 level=INFO msg=Version api=signer type=response data=6.1.0 error=<nil>
time=2025-04-26T15:21:27.205+08:00 level=INFO msg=List api=signer type=request metadata="{\"remote\":\"NA\",\"local\":\"NA\",\"scheme\":\"ipc\",\"User-Agent\":\"\",\"Origin\":\"\"}"
time=2025-04-26T15:21:37.476+08:00 level=INFO msg=List api=signer type=response data="[0xe3884CF5d8fc59367A9702CA08295685E825D4f5 0x54db8d1344208f57d60E0B87eA02bB6577Fbddda]"
time=2025-04-26T15:21:37.477+08:00 level=INFO msg=SignTransaction api=signer type=request metadata="{\"remote\":\"NA\",\"local\":\"NA\",\"scheme\":\"ipc\",\"User-Agent\":\"\",\"Origin\":\"\"}" tx="{\"from\":\"0xe3884CF5d8fc59367A9702CA08295685E825D4f5\",\"to\":\"0x54db8d1344208f57d60E0B87eA02bB6577Fbddda\",\"gas\":\"0x5208\",\"gasPrice\":null,\"maxFeePerGas\":\"0x7744d640\",\"maxPriorityFeePerGas\":\"0xf4240\",\"value\":\"0xde0b6b3a7640000\",\"nonce\":\"0x0\",\"input\":\"0x\",\"accessList\":[],\"chainId\":\"0x7e7\"}" methodSelector=<nil>
time=2025-04-26T15:21:42.380+08:00 level=INFO msg=SignTransaction api=signer type=response data=02f8738207e780830f4240847744d6408252089454db8d1344208f57d60e0b87ea02bb6577fbddda880de0b6b3a764000080c001a0e563ff2169bac952819ffa979a5a558bc5542f1eca23793d699c331b59631ca6a02938efd2cb2eeda008def559a3ac87406beab26d202838d3ad6e9a0116b5459b error=<nil>
time=2025-04-27T11:14:58.645+08:00 level=INFO msg=Configured api=signer "audit log"=audit.log
time=2025-04-27T11:15:30.162+08:00 level=INFO msg=Version api=signer type=request metadata="{\"remote\":\"NA\",\"local\":\"NA\",\"scheme\":\"ipc\",\"User-Agent\":\"\",\"Origin\":\"\"}"
time=2025-04-27T11:15:30.162+08:00 level=INFO msg=Version api=signer type=response data=6.1.0 error=<nil>
time=2025-04-27T11:25:07.486+08:00 level=INFO msg=Version api=signer type=request metadata="{\"remote\":\"NA\",\"local\":\"NA\",\"scheme\":\"ipc\",\"User-Agent\":\"\",\"Origin\":\"\"}"
time=2025-04-27T11:25:07.486+08:00 level=INFO msg=Version api=signer type=response data=6.1.0 error=<nil>
time=2025-04-27T11:35:36.992+08:00 level=INFO msg=Version api=signer type=request metadata="{\"remote\":\"NA\",\"local\":\"NA\",\"scheme\":\"ipc\",\"User-Agent\":\"\",\"Origin\":\"\"}"
time=2025-04-27T11:35:36.992+08:00 level=INFO msg=Version api=signer type=response data=6.1.0 error=<nil>
time=2025-04-27T12:01:30.763+08:00 level=INFO msg=Version api=signer type=request metadata="{\"remote\":\"NA\",\"local\":\"NA\",\"scheme\":\"ipc\",\"User-Agent\":\"\",\"Origin\":\"\"}"
time=2025-04-27T12:01:30.763+08:00 level=INFO msg=Version api=signer type=response data=6.1.0 error=<nil>
time=2025-04-27T12:09:53.656+08:00 level=INFO msg=Version api=signer type=request metadata="{\"remote\":\"NA\",\"local\":\"NA\",\"scheme\":\"ipc\",\"User-Agent\":\"\",\"Origin\":\"\"}"
time=2025-04-27T12:09:53.656+08:00 level=INFO msg=Version api=signer type=response data=6.1.0 error=<nil>
time=2025-04-27T12:18:11.611+08:00 level=INFO msg=Version api=signer type=request metadata="{\"remote\":\"NA\",\"local\":\"NA\",\"scheme\":\"ipc\",\"User-Agent\":\"\",\"Origin\":\"\"}"
time=2025-04-27T12:18:11.611+08:00 level=INFO msg=Version api=signer type=response data=6.1.0 error=<nil>
time=2025-04-27T12:26:59.931+08:00 level=INFO msg=Version api=signer type=request metadata="{\"remote\":\"NA\",\"local\":\"NA\",\"scheme\":\"ipc\",\"User-Agent\":\"\",\"Origin\":\"\"}"
time=2025-04-27T12:26:59.931+08:00 level=INFO msg=Version api=signer type=response data=6.1.0 error=<nil>
time=2025-04-27T12:33:05.152+08:00 level=INFO msg=List api=signer type=request metadata="{\"remote\":\"NA\",\"local\":\"NA\",\"scheme\":\"ipc\",\"User-Agent\":\"\",\"Origin\":\"\"}"
time=2025-04-27T12:33:15.423+08:00 level=INFO msg=List api=signer type=response data="[0xe3884CF5d8fc59367A9702CA08295685E825D4f5 0x54db8d1344208f57d60E0B87eA02bB6577Fbddda]"
time=2025-04-27T12:34:51.797+08:00 level=INFO msg=SignTransaction api=signer type=request metadata="{\"remote\":\"NA\",\"local\":\"NA\",\"scheme\":\"ipc\",\"User-Agent\":\"\",\"Origin\":\"\"}" tx="{\"from\":\"0xe3884CF5d8fc59367A9702CA08295685E825D4f5\",\"to\":\"0x54db8d1344208f57d60E0B87eA02bB6577Fbddda\",\"gas\":\"0x5208\",\"gasPrice\":null,\"maxFeePerGas\":\"0x7744d640\",\"maxPriorityFeePerGas\":\"0xf4240\",\"value\":\"0xde0b6b3a7640000\",\"nonce\":\"0x0\",\"input\":\"0x\",\"accessList\":[],\"chainId\":\"0x7e7\"}" methodSelector=<nil>
time=2025-04-27T12:35:01.972+08:00 level=INFO msg=SignTransaction api=signer type=response data=02f8738207e780830f4240847744d6408252089454db8d1344208f57d60e0b87ea02bb6577fbddda880de0b6b3a764000080c001a0e563ff2169bac952819ffa979a5a558bc5542f1eca23793d699c331b59631ca6a02938efd2cb2eeda008def559a3ac87406beab26d202838d3ad6e9a0116b5459b error=<nil>
time=2025-04-27T12:35:12.746+08:00 level=INFO msg=SignTransaction api=signer type=request metadata="{\"remote\":\"NA\",\"local\":\"NA\",\"scheme\":\"ipc\",\"User-Agent\":\"\",\"Origin\":\"\"}" tx="{\"from\":\"0xe3884CF5d8fc59367A9702CA08295685E825D4f5\",\"to\":\"0x54db8d1344208f57d60E0B87eA02bB6577Fbddda\",\"gas\":\"0x5208\",\"gasPrice\":null,\"maxFeePerGas\":\"0x7744d640\",\"maxPriorityFeePerGas\":\"0xf4240\",\"value\":\"0xde0b6b3a7640000\",\"nonce\":\"0x1\",\"input\":\"0x\",\"accessList\":[],\"chainId\":\"0x7e7\"}" methodSelector=<nil>
time=2025-04-27T12:35:30.511+08:00 level=INFO msg=SignTransaction api=signer type=response data=02f8738207e701830f4240847744d6408252089454db8d1344208f57d60e0b87ea02bb6577fbddda880de0b6b3a764000080c001a02a167febd70693192d9fab97c4c0c6249b776acfaa3c27bcfaa7d82d108ddd4da039b379f78beff697da22ede9e9500ebbc4152c8c0d886f3107ac5b5413f51464 error=<nil>
time=2025-04-27T12:44:54.953+08:00 level=INFO msg=Version api=signer type=request metadata="{\"remote\":\"NA\",\"local\":\"NA\",\"scheme\":\"ipc\",\"User-Agent\":\"\",\"Origin\":\"\"}"
time=2025-04-27T12:44:54.953+08:00 level=INFO msg=Version api=signer type=response data=6.1.0 error=<nil>
time=2025-04-27T12:50:32.343+08:00 level=INFO msg=Version api=signer type=request metadata="{\"remote\":\"NA\",\"local\":\"NA\",\"scheme\":\"ipc\",\"User-Agent\":\"\",\"Origin\":\"\"}"
time=2025-04-27T12:50:32.343+08:00 level=INFO msg=Version api=signer type=response data=6.1.0 error=<nil>
time=2025-04-27T12:52:48.813+08:00 level=INFO msg=Version api=signer type=request metadata="{\"remote\":\"NA\",\"local\":\"NA\",\"scheme\":\"ipc\",\"User-Agent\":\"\",\"Origin\":\"\"}"
time=2025-04-27T12:52:48.813+08:00 level=INFO msg=Version api=signer type=response data=6.1.0 error=<nil>
time=2025-04-27T12:55:43.357+08:00 level=INFO msg=Version api=signer type=request metadata="{\"remote\":\"NA\",\"local\":\"NA\",\"scheme\":\"ipc\",\"User-Agent\":\"\",\"Origin\":\"\"}"
time=2025-04-27T12:55:43.357+08:00 level=INFO msg=Version api=signer type=response data=6.1.0 error=<nil>
time=2025-04-27T12:55:49.651+08:00 level=INFO msg=Version api=signer type=request metadata="{\"remote\":\"NA\",\"local\":\"NA\",\"scheme\":\"ipc\",\"User-Agent\":\"\",\"Origin\":\"\"}"
time=2025-04-27T12:55:49.651+08:00 level=INFO msg=Version api=signer type=response data=6.1.0 error=<nil>
time=2025-04-27T12:56:44.676+08:00 level=INFO msg=List api=signer type=request metadata="{\"remote\":\"NA\",\"local\":\"NA\",\"scheme\":\"ipc\",\"User-Agent\":\"\",\"Origin\":\"\"}"
time=2025-04-27T12:56:57.780+08:00 level=INFO msg=List api=signer type=response data="[0xe3884CF5d8fc59367A9702CA08295685E825D4f5 0x54db8d1344208f57d60E0B87eA02bB6577Fbddda]"
time=2025-04-27T12:56:57.781+08:00 level=INFO msg=SignTransaction api=signer type=request metadata="{\"remote\":\"NA\",\"local\":\"NA\",\"scheme\":\"ipc\",\"User-Agent\":\"\",\"Origin\":\"\"}" tx="{\"from\":\"0xe3884CF5d8fc59367A9702CA08295685E825D4f5\",\"to\":\"0x54db8d1344208f57d60E0B87eA02bB6577Fbddda\",\"gas\":\"0x5208\",\"gasPrice\":null,\"maxFeePerGas\":\"0x7744d640\",\"maxPriorityFeePerGas\":\"0xf4240\",\"value\":\"0xde0b6b3a7640000\",\"nonce\":\"0x0\",\"input\":\"0x\",\"accessList\":[],\"chainId\":\"0x7e7\"}" methodSelector=<nil>
time=2025-04-27T12:57:02.904+08:00 level=INFO msg=SignTransaction api=signer type=response data=02f8738207e780830f4240847744d6408252089454db8d1344208f57d60e0b87ea02bb6577fbddda880de0b6b3a764000080c001a0e563ff2169bac952819ffa979a5a558bc5542f1eca23793d699c331b59631ca6a02938efd2cb2eeda008def559a3ac87406beab26d202838d3ad6e9a0116b5459b error=<nil>
time=2025-04-27T13:39:51.856+08:00 level=INFO msg=Version api=signer type=request metadata="{\"remote\":\"NA\",\"local\":\"NA\",\"scheme\":\"ipc\",\"User-Agent\":\"\",\"Origin\":\"\"}"
time=2025-04-27T13:39:51.856+08:00 level=INFO msg=Version api=signer type=response data=6.1.0 error=<nil>
time=2025-04-27T13:43:33.365+08:00 level=INFO msg=Version api=signer type=request metadata="{\"remote\":\"NA\",\"local\":\"NA\",\"scheme\":\"ipc\",\"User-Agent\":\"\",\"Origin\":\"\"}"
time=2025-04-27T13:43:33.365+08:00 level=INFO msg=Version api=signer type=response data=6.1.0 error=<nil>
time=2025-04-27T14:19:41.829+08:00 level=INFO msg=Version api=signer type=request metadata="{\"remote\":\"NA\",\"local\":\"NA\",\"scheme\":\"ipc\",\"User-Agent\":\"\",\"Origin\":\"\"}"
time=2025-04-27T14:19:41.829+08:00 level=INFO msg=Version api=signer type=response data=6.1.0 error=<nil>
time=2025-04-27T14:23:01.704+08:00 level=INFO msg=Version api=signer type=request metadata="{\"remote\":\"NA\",\"local\":\"NA\",\"scheme\":\"ipc\",\"User-Agent\":\"\",\"Origin\":\"\"}"
time=2025-04-27T14:23:01.704+08:00 level=INFO msg=Version api=signer type=response data=6.1.0 error=<nil>
time=2025-04-27T14:27:13.546+08:00 level=INFO msg=Version api=signer type=request metadata="{\"remote\":\"NA\",\"local\":\"NA\",\"scheme\":\"ipc\",\"User-Agent\":\"\",\"Origin\":\"\"}"
time=2025-04-27T14:27:13.547+08:00 level=INFO msg=Version api=signer type=response data=6.1.0 error=<nil>
time=2025-04-27T14:52:15.283+08:00 level=INFO msg=List api=signer type=request metadata="{\"remote\":\"NA\",\"local\":\"NA\",\"scheme\":\"ipc\",\"User-Agent\":\"\",\"Origin\":\"\"}"
time=2025-04-27T14:52:23.974+08:00 level=INFO msg=List api=signer type=response data="[0xe3884CF5d8fc59367A9702CA08295685E825D4f5 0x54db8d1344208f57d60E0B87eA02bB6577Fbddda]"
time=2025-04-27T14:52:23.974+08:00 level=INFO msg=SignTransaction api=signer type=request metadata="{\"remote\":\"NA\",\"local\":\"NA\",\"scheme\":\"ipc\",\"User-Agent\":\"\",\"Origin\":\"\"}" tx="{\"from\":\"0xe3884CF5d8fc59367A9702CA08295685E825D4f5\",\"to\":\"0x54db8d1344208f57d60E0B87eA02bB6577Fbddda\",\"gas\":\"0x5208\",\"gasPrice\":null,\"maxFeePerGas\":\"0x7744d640\",\"maxPriorityFeePerGas\":\"0xf4240\",\"value\":\"0xde0b6b3a7640000\",\"nonce\":\"0x0\",\"input\":\"0x\",\"accessList\":[],\"chainId\":\"0x7e7\"}" methodSelector=<nil>
time=2025-04-27T14:52:29.113+08:00 level=INFO msg=SignTransaction api=signer type=response data=02f8738207e780830f4240847744d6408252089454db8d1344208f57d60e0b87ea02bb6577fbddda880de0b6b3a764000080c001a0e563ff2169bac952819ffa979a5a558bc5542f1eca23793d699c331b59631ca6a02938efd2cb2eeda008def559a3ac87406beab26d202838d3ad6e9a0116b5459b error=<nil>
time=2025-04-27T15:28:03.716+08:00 level=INFO msg=Version api=signer type=request metadata="{\"remote\":\"NA\",\"local\":\"NA\",\"scheme\":\"ipc\",\"User-Agent\":\"\",\"Origin\":\"\"}"
time=2025-04-27T15:28:03.716+08:00 level=INFO msg=Version api=signer type=response data=6.1.0 error=<nil>
time=2025-04-27T15:42:38.511+08:00 level=INFO msg=Version api=signer type=request metadata="{\"remote\":\"NA\",\"local\":\"NA\",\"scheme\":\"ipc\",\"User-Agent\":\"\",\"Origin\":\"\"}"
time=2025-04-27T15:42:38.511+08:00 level=INFO msg=Version api=signer type=response data=6.1.0 error=<nil>
time=2025-04-27T15:48:27.824+08:00 level=INFO msg=List api=signer type=request metadata="{\"remote\":\"NA\",\"local\":\"NA\",\"scheme\":\"ipc\",\"User-Agent\":\"\",\"Origin\":\"\"}"
time=2025-04-27T15:48:35.653+08:00 level=INFO msg=List api=signer type=response data="[0xe3884CF5d8fc59367A9702CA08295685E825D4f5 0x54db8d1344208f57d60E0B87eA02bB6577Fbddda]"
time=2025-04-27T15:57:09.803+08:00 level=INFO msg=Version api=signer type=request metadata="{\"remote\":\"NA\",\"local\":\"NA\",\"scheme\":\"ipc\",\"User-Agent\":\"\",\"Origin\":\"\"}"
time=2025-04-27T15:57:09.803+08:00 level=INFO msg=Version api=signer type=response data=6.1.0 error=<nil>
time=2025-04-27T15:59:17.009+08:00 level=INFO msg=Version api=signer type=request metadata="{\"remote\":\"NA\",\"local\":\"NA\",\"scheme\":\"ipc\",\"User-Agent\":\"\",\"Origin\":\"\"}"
time=2025-04-27T15:59:17.009+08:00 level=INFO msg=Version api=signer type=response data=6.1.0 error=<nil>
time=2025-04-27T16:05:57.780+08:00 level=INFO msg=Version api=signer type=request metadata="{\"remote\":\"NA\",\"local\":\"NA\",\"scheme\":\"ipc\",\"User-Agent\":\"\",\"Origin\":\"\"}"
time=2025-04-27T16:05:57.780+08:00 level=INFO msg=Version api=signer type=response data=6.1.0 error=<nil>
time=2025-04-27T16:07:55.474+08:00 level=INFO msg=Version api=signer type=request metadata="{\"remote\":\"NA\",\"local\":\"NA\",\"scheme\":\"ipc\",\"User-Agent\":\"\",\"Origin\":\"\"}"
time=2025-04-27T16:07:55.474+08:00 level=INFO msg=Version api=signer type=response data=6.1.0 error=<nil>
time=2025-04-27T16:19:06.206+08:00 level=INFO msg=Version api=signer type=request metadata="{\"remote\":\"NA\",\"local\":\"NA\",\"scheme\":\"ipc\",\"User-Agent\":\"\",\"Origin\":\"\"}"
time=2025-04-27T16:19:06.206+08:00 level=INFO msg=Version api=signer type=response data=6.1.0 error=<nil>
time=2025-04-27T16:24:52.055+08:00 level=INFO msg=Version api=signer type=request metadata="{\"remote\":\"NA\",\"local\":\"NA\",\"scheme\":\"ipc\",\"User-Agent\":\"\",\"Origin\":\"\"}"
time=2025-04-27T16:24:52.055+08:00 level=INFO msg=Version api=signer type=response data=6.1.0 error=<nil>
time=2025-04-27T16:43:36.961+08:00 level=INFO msg=Version api=signer type=request metadata="{\"remote\":\"NA\",\"local\":\"NA\",\"scheme\":\"ipc\",\"User-Agent\":\"\",\"Origin\":\"\"}"
time=2025-04-27T16:43:36.961+08:00 level=INFO msg=Version api=signer type=response data=6.1.0 error=<nil>
time=2025-04-27T16:53:17.278+08:00 level=INFO msg=Version api=signer type=request metadata="{\"remote\":\"NA\",\"local\":\"NA\",\"scheme\":\"ipc\",\"User-Agent\":\"\",\"Origin\":\"\"}"
time=2025-04-27T16:53:17.278+08:00 level=INFO msg=Version api=signer type=response data=6.1.0 error=<nil>
time=2025-04-27T16:57:15.336+08:00 level=INFO msg=Version api=signer type=request metadata="{\"remote\":\"NA\",\"local\":\"NA\",\"scheme\":\"ipc\",\"User-Agent\":\"\",\"Origin\":\"\"}"
time=2025-04-27T16:57:15.336+08:00 level=INFO msg=Version api=signer type=response data=6.1.0 error=<nil>
time=2025-04-27T17:11:40.885+08:00 level=INFO msg=List api=signer type=request metadata="{\"remote\":\"NA\",\"local\":\"NA\",\"scheme\":\"ipc\",\"User-Agent\":\"\",\"Origin\":\"\"}"
time=2025-04-27T17:11:49.675+08:00 level=INFO msg=List api=signer type=response data="[0xe3884CF5d8fc59367A9702CA08295685E825D4f5 0x54db8d1344208f57d60E0B87eA02bB6577Fbddda]"
time=2025-04-27T17:11:49.676+08:00 level=INFO msg=SignTransaction api=signer type=request metadata="{\"remote\":\"NA\",\"local\":\"NA\",\"scheme\":\"ipc\",\"User-Agent\":\"\",\"Origin\":\"\"}" tx="{\"from\":\"0xe3884CF5d8fc59367A9702CA08295685E825D4f5\",\"to\":\"0x54db8d1344208f57d60E0B87eA02bB6577Fbddda\",\"gas\":\"0x5208\",\"gasPrice\":null,\"maxFeePerGas\":\"0x7744d640\",\"maxPriorityFeePerGas\":\"0xf4240\",\"value\":\"0xde0b6b3a7640000\",\"nonce\":\"0x0\",\"input\":\"0x\",\"accessList\":[],\"chainId\":\"0x7e7\"}" methodSelector=<nil>
time=2025-04-27T17:11:54.162+08:00 level=INFO msg=SignTransaction api=signer type=response data=02f8738207e780830f4240847744d6408252089454db8d1344208f57d60e0b87ea02bb6577fbddda880de0b6b3a764000080c001a0e563ff2169bac952819ffa979a5a558bc5542f1eca23793d699c331b59631ca6a02938efd2cb2eeda008def559a3ac87406beab26d202838d3ad6e9a0116b5459b error=<nil>
time=2025-04-27T17:24:38.589+08:00 level=INFO msg=Version api=signer type=request metadata="{\"remote\":\"NA\",\"local\":\"NA\",\"scheme\":\"ipc\",\"User-Agent\":\"\",\"Origin\":\"\"}"
time=2025-04-27T17:24:38.589+08:00 level=INFO msg=Version api=signer type=response data=6.1.0 error=<nil>
time=2025-04-27T17:26:05.785+08:00 level=INFO msg=List api=signer type=request metadata="{\"remote\":\"NA\",\"local\":\"NA\",\"scheme\":\"ipc\",\"User-Agent\":\"\",\"Origin\":\"\"}"
time=2025-04-27T17:26:10.839+08:00 level=INFO msg=List api=signer type=response data="[0xe3884CF5d8fc59367A9702CA08295685E825D4f5 0x54db8d1344208f57d60E0B87eA02bB6577Fbddda]"
time=2025-04-27T17:26:10.840+08:00 level=INFO msg=SignTransaction api=signer type=request metadata="{\"remote\":\"NA\",\"local\":\"NA\",\"scheme\":\"ipc\",\"User-Agent\":\"\",\"Origin\":\"\"}" tx="{\"from\":\"0xe3884CF5d8fc59367A9702CA08295685E825D4f5\",\"to\":\"0x54db8d1344208f57d60E0B87eA02bB6577Fbddda\",\"gas\":\"0x5208\",\"gasPrice\":null,\"maxFeePerGas\":\"0x7744d640\",\"maxPriorityFeePerGas\":\"0xf4240\",\"value\":\"0xde0b6b3a7640000\",\"nonce\":\"0x0\",\"input\":\"0x\",\"accessList\":[],\"chainId\":\"0x7e7\"}" methodSelector=<nil>
time=2025-04-27T17:26:15.115+08:00 level=INFO msg=SignTransaction api=signer type=response data=02f8738207e780830f4240847744d6408252089454db8d1344208f57d60e0b87ea02bb6577fbddda880de0b6b3a764000080c001a0e563ff2169bac952819ffa979a5a558bc5542f1eca23793d699c331b59631ca6a02938efd2cb2eeda008def559a3ac87406beab26d202838d3ad6e9a0116b5459b error=<nil>
time=2025-04-28T15:49:31.111+08:00 level=INFO msg=Configured api=signer "audit log"=audit.log
time=2025-04-28T15:50:03.455+08:00 level=INFO msg=Version api=signer type=request metadata="{\"remote\":\"NA\",\"local\":\"NA\",\"scheme\":\"ipc\",\"User-Agent\":\"\",\"Origin\":\"\"}"
time=2025-04-28T15:50:03.455+08:00 level=INFO msg=Version api=signer type=response data=6.1.0 error=<nil>
time=2025-04-28T15:50:39.634+08:00 level=INFO msg=Version api=signer type=request metadata="{\"remote\":\"NA\",\"local\":\"NA\",\"scheme\":\"ipc\",\"User-Agent\":\"\",\"Origin\":\"\"}"
time=2025-04-28T15:50:39.634+08:00 level=INFO msg=Version api=signer type=response data=6.1.0 error=<nil>
time=2025-04-28T16:09:15.490+08:00 level=INFO msg=Version api=signer type=request metadata="{\"remote\":\"NA\",\"local\":\"NA\",\"scheme\":\"ipc\",\"User-Agent\":\"\",\"Origin\":\"\"}"
time=2025-04-28T16:09:15.490+08:00 level=INFO msg=Version api=signer type=response data=6.1.0 error=<nil>
time=2025-04-28T16:12:01.402+08:00 level=INFO msg=Version api=signer type=request metadata="{\"remote\":\"NA\",\"local\":\"NA\",\"scheme\":\"ipc\",\"User-Agent\":\"\",\"Origin\":\"\"}"
time=2025-04-28T16:12:01.402+08:00 level=INFO msg=Version api=signer type=response data=6.1.0 error=<nil>
time=2025-04-28T16:37:58.125+08:00 level=INFO msg=Version api=signer type=request metadata="{\"remote\":\"NA\",\"local\":\"NA\",\"scheme\":\"ipc\",\"User-Agent\":\"\",\"Origin\":\"\"}"
time=2025-04-28T16:37:58.125+08:00 level=INFO msg=Version api=signer type=response data=6.1.0 error=<nil>
time=2025-04-28T16:43:57.910+08:00 level=INFO msg=Version api=signer type=request metadata="{\"remote\":\"NA\",\"local\":\"NA\",\"scheme\":\"ipc\",\"User-Agent\":\"\",\"Origin\":\"\"}"
time=2025-04-28T16:43:57.910+08:00 level=INFO msg=Version api=signer type=response data=6.1.0 error=<nil>
time=2025-04-28T16:49:45.581+08:00 level=INFO msg=List api=signer type=request metadata="{\"remote\":\"NA\",\"local\":\"NA\",\"scheme\":\"ipc\",\"User-Agent\":\"\",\"Origin\":\"\"}"
time=2025-04-28T16:54:47.929+08:00 level=INFO msg=List api=signer type=request metadata="{\"remote\":\"NA\",\"local\":\"NA\",\"scheme\":\"ipc\",\"User-Agent\":\"\",\"Origin\":\"\"}"
time=2025-04-28T16:54:53.481+08:00 level=INFO msg=List api=signer type=response data="[0xe3884CF5d8fc59367A9702CA08295685E825D4f5 0x54db8d1344208f57d60E0B87eA02bB6577Fbddda]"
time=2025-04-28T16:54:54.398+08:00 level=INFO msg=List api=signer type=response data="[0xe3884CF5d8fc59367A9702CA08295685E825D4f5 0x54db8d1344208f57d60E0B87eA02bB6577Fbddda]"
time=2025-04-28T16:54:54.399+08:00 level=INFO msg=SignTransaction api=signer type=request metadata="{\"remote\":\"NA\",\"local\":\"NA\",\"scheme\":\"ipc\",\"User-Agent\":\"\",\"Origin\":\"\"}" tx="{\"from\":\"0xe3884CF5d8fc59367A9702CA08295685E825D4f5\",\"to\":\"0x54db8d1344208f57d60E0B87eA02bB6577Fbddda\",\"gas\":\"0x5208\",\"gasPrice\":null,\"maxFeePerGas\":\"0x7744d640\",\"maxPriorityFeePerGas\":\"0xf4240\",\"value\":\"0xde0b6b3a7640000\",\"nonce\":\"0x0\",\"input\":\"0x\",\"accessList\":[],\"chainId\":\"0x7e7\"}" methodSelector=<nil>
time=2025-04-28T16:54:59.191+08:00 level=INFO msg=SignTransaction api=signer type=response data=02f8738207e780830f4240847744d6408252089454db8d1344208f57d60e0b87ea02bb6577fbddda880de0b6b3a764000080c001a0e563ff2169bac952819ffa979a5a558bc5542f1eca23793d699c331b59631ca6a02938efd2cb2eeda008def559a3ac87406beab26d202838d3ad6e9a0116b5459b error=<nil>
time=2025-04-28T17:00:47.143+08:00 level=INFO msg=Version api=signer type=request metadata="{\"remote\":\"NA\",\"local\":\"NA\",\"scheme\":\"ipc\",\"User-Agent\":\"\",\"Origin\":\"\"}"
time=2025-04-28T17:00:47.143+08:00 level=INFO msg=Version api=signer type=response data=6.1.0 error=<nil>
time=2025-04-28T17:02:00.498+08:00 level=INFO msg=Version api=signer type=request metadata="{\"remote\":\"NA\",\"local\":\"NA\",\"scheme\":\"ipc\",\"User-Agent\":\"\",\"Origin\":\"\"}"
time=2025-04-28T17:02:00.498+08:00 level=INFO msg=Version api=signer type=response data=6.1.0 error=<nil>
time=2025-04-28T17:16:18.689+08:00 level=INFO msg=Version api=signer type=request metadata="{\"remote\":\"NA\",\"local\":\"NA\",\"scheme\":\"ipc\",\"User-Agent\":\"\",\"Origin\":\"\"}"
time=2025-04-28T17:16:18.690+08:00 level=INFO msg=Version api=signer type=response data=6.1.0 error=<nil>
time=2025-04-28T17:18:28.176+08:00 level=INFO msg=Version api=signer type=request metadata="{\"remote\":\"NA\",\"local\":\"NA\",\"scheme\":\"ipc\",\"User-Agent\":\"\",\"Origin\":\"\"}"
time=2025-04-28T17:18:28.176+08:00 level=INFO msg=Version api=signer type=response data=6.1.0 error=<nil>
time=2025-04-28T17:24:09.216+08:00 level=INFO msg=Version api=signer type=request metadata="{\"remote\":\"NA\",\"local\":\"NA\",\"scheme\":\"ipc\",\"User-Agent\":\"\",\"Origin\":\"\"}"
time=2025-04-28T17:24:09.216+08:00 level=INFO msg=Version api=signer type=response data=6.1.0 error=<nil>
time=2025-04-28T17:44:13.218+08:00 level=INFO msg=Version api=signer type=request metadata="{\"remote\":\"NA\",\"local\":\"NA\",\"scheme\":\"ipc\",\"User-Agent\":\"\",\"Origin\":\"\"}"
time=2025-04-28T17:44:13.218+08:00 level=INFO msg=Version api=signer type=response data=6.1.0 error=<nil>
time=2025-04-28T17:52:09.837+08:00 level=INFO msg=Version api=signer type=request metadata="{\"remote\":\"NA\",\"local\":\"NA\",\"scheme\":\"ipc\",\"User-Agent\":\"\",\"Origin\":\"\"}"
time=2025-04-28T17:52:09.837+08:00 level=INFO msg=Version api=signer type=response data=6.1.0 error=<nil>
time=2025-04-28T17:57:12.173+08:00 level=INFO msg=Version api=signer type=request metadata="{\"remote\":\"NA\",\"local\":\"NA\",\"scheme\":\"ipc\",\"User-Agent\":\"\",\"Origin\":\"\"}"
time=2025-04-28T17:57:12.173+08:00 level=INFO msg=Version api=signer type=response data=6.1.0 error=<nil>
time=2025-04-28T17:59:35.177+08:00 level=INFO msg=Version api=signer type=request metadata="{\"remote\":\"NA\",\"local\":\"NA\",\"scheme\":\"ipc\",\"User-Agent\":\"\",\"Origin\":\"\"}"
time=2025-04-28T17:59:35.177+08:00 level=INFO msg=Version api=signer type=response data=6.1.0 error=<nil>
time=2025-04-28T18:13:31.766+08:00 level=INFO msg=Version api=signer type=request metadata="{\"remote\":\"NA\",\"local\":\"NA\",\"scheme\":\"ipc\",\"User-Agent\":\"\",\"Origin\":\"\"}"
time=2025-04-28T18:13:31.766+08:00 level=INFO msg=Version api=signer type=response data=6.1.0 error=<nil>
time=2025-04-28T20:08:16.720+08:00 level=INFO msg=Version api=signer type=request metadata="{\"remote\":\"NA\",\"local\":\"NA\",\"scheme\":\"ipc\",\"User-Agent\":\"\",\"Origin\":\"\"}"
time=2025-04-28T20:08:16.720+08:00 level=INFO msg=Version api=signer type=response data=6.1.0 error=<nil>
time=2025-04-28T20:23:05.387+08:00 level=INFO msg=Version api=signer type=request metadata="{\"remote\":\"NA\",\"local\":\"NA\",\"scheme\":\"ipc\",\"User-Agent\":\"\",\"Origin\":\"\"}"
time=2025-04-28T20:23:05.387+08:00 level=INFO msg=Version api=signer type=response data=6.1.0 error=<nil>
time=2025-04-28T20:39:17.065+08:00 level=INFO msg=Version api=signer type=request metadata="{\"remote\":\"NA\",\"local\":\"NA\",\"scheme\":\"ipc\",\"User-Agent\":\"\",\"Origin\":\"\"}"
time=2025-04-28T20:39:17.065+08:00 level=INFO msg=Version api=signer type=response data=6.1.0 error=<nil>
time=2025-04-28T21:15:45.201+08:00 level=INFO msg=Version api=signer type=request metadata="{\"remote\":\"NA\",\"local\":\"NA\",\"scheme\":\"ipc\",\"User-Agent\":\"\",\"Origin\":\"\"}"
time=2025-04-28T21:15:45.201+08:00 level=INFO msg=Version api=signer type=response data=6.1.0 error=<nil>
time=2025-04-28T21:40:17.542+08:00 level=INFO msg=Version api=signer type=request metadata="{\"remote\":\"NA\",\"local\":\"NA\",\"scheme\":\"ipc\",\"User-Agent\":\"\",\"Origin\":\"\"}"
time=2025-04-28T21:40:17.542+08:00 level=INFO msg=Version api=signer type=response data=6.1.0 error=<nil>
time=2025-04-28T21:46:44.960+08:00 level=INFO msg=Version api=signer type=request metadata="{\"remote\":\"NA\",\"local\":\"NA\",\"scheme\":\"ipc\",\"User-Agent\":\"\",\"Origin\":\"\"}"
time=2025-04-28T21:46:44.960+08:00 level=INFO msg=Version api=signer type=response data=6.1.0 error=<nil>
time=2025-04-28T21:47:25.109+08:00 level=INFO msg=Version api=signer type=request metadata="{\"remote\":\"NA\",\"local\":\"NA\",\"scheme\":\"ipc\",\"User-Agent\":\"\",\"Origin\":\"\"}"
time=2025-04-28T21:47:25.109+08:00 level=INFO msg=Version api=signer type=response data=6.1.0 error=<nil>
time=2025-04-28T21:58:50.548+08:00 level=INFO msg=Version api=signer type=request metadata="{\"remote\":\"NA\",\"local\":\"NA\",\"scheme\":\"ipc\",\"User-Agent\":\"\",\"Origin\":\"\"}"
time=2025-04-28T21:58:50.548+08:00 level=INFO msg=Version api=signer type=response data=6.1.0 error=<nil>
time=2025-04-28T22:30:14.406+08:00 level=INFO msg=Version api=signer type=request metadata="{\"remote\":\"NA\",\"local\":\"NA\",\"scheme\":\"ipc\",\"User-Agent\":\"\",\"Origin\":\"\"}"
time=2025-04-28T22:30:14.406+08:00 level=INFO msg=Version api=signer type=response data=6.1.0 error=<nil>
time=2025-04-28T22:34:54.165+08:00 level=INFO msg=Version api=signer type=request metadata="{\"remote\":\"NA\",\"local\":\"NA\",\"scheme\":\"ipc\",\"User-Agent\":\"\",\"Origin\":\"\"}"
time=2025-04-28T22:34:54.165+08:00 level=INFO msg=Version api=signer type=response data=6.1.0 error=<nil>
time=2025-04-28T22:38:07.300+08:00 level=INFO msg=Version api=signer type=request metadata="{\"remote\":\"NA\",\"local\":\"NA\",\"scheme\":\"ipc\",\"User-Agent\":\"\",\"Origin\":\"\"}"
time=2025-04-28T22:38:07.300+08:00 level=INFO msg=Version api=signer type=response data=6.1.0 error=<nil>
time=2025-04-28T22:40:48.656+08:00 level=INFO msg=Version api=signer type=request metadata="{\"remote\":\"NA\",\"local\":\"NA\",\"scheme\":\"ipc\",\"User-Agent\":\"\",\"Origin\":\"\"}"
time=2025-04-28T22:40:48.656+08:00 level=INFO msg=Version api=signer type=response data=6.1.0 error=<nil>
time=2025-04-28T22:48:22.660+08:00 level=INFO msg=Version api=signer type=request metadata="{\"remote\":\"NA\",\"local\":\"NA\",\"scheme\":\"ipc\",\"User-Agent\":\"\",\"Origin\":\"\"}"
time=2025-04-28T22:48:22.660+08:00 level=INFO msg=Version api=signer type=response data=6.1.0 error=<nil>
time=2025-04-28T22:56:23.405+08:00 level=INFO msg=Version api=signer type=request metadata="{\"remote\":\"NA\",\"local\":\"NA\",\"scheme\":\"ipc\",\"User-Agent\":\"\",\"Origin\":\"\"}"
time=2025-04-28T22:56:23.405+08:00 level=INFO msg=Version api=signer type=response data=6.1.0 error=<nil>
time=2025-04-28T22:59:39.287+08:00 level=INFO msg=Version api=signer type=request metadata="{\"remote\":\"NA\",\"local\":\"NA\",\"scheme\":\"ipc\",\"User-Agent\":\"\",\"Origin\":\"\"}"
time=2025-04-28T22:59:39.287+08:00 level=INFO msg=Version api=signer type=response data=6.1.0 error=<nil>
time=2025-04-29T11:14:30.142+08:00 level=INFO msg=Version api=signer type=request metadata="{\"remote\":\"NA\",\"local\":\"NA\",\"scheme\":\"ipc\",\"User-Agent\":\"\",\"Origin\":\"\"}"
time=2025-04-29T11:14:30.142+08:00 level=INFO msg=Version api=signer type=response data=6.1.0 error=<nil>
time=2025-04-29T11:48:32.359+08:00 level=INFO msg=Version api=signer type=request metadata="{\"remote\":\"NA\",\"local\":\"NA\",\"scheme\":\"ipc\",\"User-Agent\":\"\",\"Origin\":\"\"}"
time=2025-04-29T11:48:32.359+08:00 level=INFO msg=Version api=signer type=response data=6.1.0 error=<nil>
time=2025-04-29T11:55:40.520+08:00 level=INFO msg=Version api=signer type=request metadata="{\"remote\":\"NA\",\"local\":\"NA\",\"scheme\":\"ipc\",\"User-Agent\":\"\",\"Origin\":\"\"}"
time=2025-04-29T11:55:40.520+08:00 level=INFO msg=Version api=signer type=response data=6.1.0 error=<nil>
time=2025-04-29T12:03:02.448+08:00 level=INFO msg=Version api=signer type=request metadata="{\"remote\":\"NA\",\"local\":\"NA\",\"scheme\":\"ipc\",\"User-Agent\":\"\",\"Origin\":\"\"}"
time=2025-04-29T12:03:02.448+08:00 level=INFO msg=Version api=signer type=response data=6.1.0 error=<nil>
time=2025-04-29T12:19:50.890+08:00 level=INFO msg=List api=signer type=request metadata="{\"remote\":\"NA\",\"local\":\"NA\",\"scheme\":\"ipc\",\"User-Agent\":\"\",\"Origin\":\"\"}"
time=2025-04-29T12:20:15.387+08:00 level=INFO msg=Configured api=signer "audit log"=audit.log
time=2025-04-29T12:20:17.874+08:00 level=INFO msg=List api=signer type=request metadata="{\"remote\":\"NA\",\"local\":\"NA\",\"scheme\":\"ipc\",\"User-Agent\":\"\",\"Origin\":\"\"}"
time=2025-04-29T12:20:20.328+08:00 level=INFO msg=List api=signer type=response data="[0xe3884CF5d8fc59367A9702CA08295685E825D4f5 0x54db8d1344208f57d60E0B87eA02bB6577Fbddda]"
time=2025-04-29T12:20:20.328+08:00 level=INFO msg=SignTransaction api=signer type=request metadata="{\"remote\":\"NA\",\"local\":\"NA\",\"scheme\":\"ipc\",\"User-Agent\":\"\",\"Origin\":\"\"}" tx="{\"from\":\"0xe3884CF5d8fc59367A9702CA08295685E825D4f5\",\"to\":\"0x54db8d1344208f57d60E0B87eA02bB6577Fbddda\",\"gas\":\"0x5208\",\"gasPrice\":null,\"maxFeePerGas\":\"0x1511adea\",\"maxPriorityFeePerGas\":\"0xf4240\",\"value\":\"0xde0b6b3a7640000\",\"nonce\":\"0x0\",\"input\":\"0x\",\"accessList\":[],\"chainId\":\"0x7e7\"}" methodSelector=<nil>
time=2025-04-29T12:20:24.739+08:00 level=INFO msg=SignTransaction api=signer type=response data=02f8738207e780830f4240841511adea8252089454db8d1344208f57d60e0b87ea02bb6577fbddda880de0b6b3a764000080c080a0dc2619d80648f8930db63e29dcc525aebfb7d146c6f4435a94a26fd983d3faf0a0412aff2a1a09da5a71de4ecb4ee7b2cb7b6cf0c55f83acb3bac672e4390807f6 error=<nil>
time=2025-04-29T12:31:44.017+08:00 level=INFO msg=List api=signer type=request metadata="{\"remote\":\"NA\",\"local\":\"NA\",\"scheme\":\"ipc\",\"User-Agent\":\"\",\"Origin\":\"\"}"
time=2025-04-29T12:31:51.059+08:00 level=INFO msg=List api=signer type=response data="[0xe3884CF5d8fc59367A9702CA08295685E825D4f5 0x54db8d1344208f57d60E0B87eA02bB6577Fbddda]"
time=2025-04-29T12:38:21.224+08:00 level=INFO msg=Version api=signer type=request metadata="{\"remote\":\"NA\",\"local\":\"NA\",\"scheme\":\"ipc\",\"User-Agent\":\"\",\"Origin\":\"\"}"
time=2025-04-29T12:38:21.224+08:00 level=INFO msg=Version api=signer type=response data=6.1.0 error=<nil>
time=2025-04-29T13:03:16.109+08:00 level=INFO msg=Version api=signer type=request metadata="{\"remote\":\"NA\",\"local\":\"NA\",\"scheme\":\"ipc\",\"User-Agent\":\"\",\"Origin\":\"\"}"
time=2025-04-29T13:03:16.109+08:00 level=INFO msg=Version api=signer type=response data=6.1.0 error=<nil>
time=2025-04-29T13:07:47.594+08:00 level=INFO msg=List api=signer type=request metadata="{\"remote\":\"NA\",\"local\":\"NA\",\"scheme\":\"ipc\",\"User-Agent\":\"\",\"Origin\":\"\"}"
time=2025-04-29T13:07:52.421+08:00 level=INFO msg=List api=signer type=response data="[0xe3884CF5d8fc59367A9702CA08295685E825D4f5 0x54db8d1344208f57d60E0B87eA02bB6577Fbddda]"
time=2025-04-29T13:07:52.422+08:00 level=INFO msg=SignTransaction api=signer type=request metadata="{\"remote\":\"NA\",\"local\":\"NA\",\"scheme\":\"ipc\",\"User-Agent\":\"\",\"Origin\":\"\"}" tx="{\"from\":\"0xe3884CF5d8fc59367A9702CA08295685E825D4f5\",\"to\":\"0x54db8d1344208f57d60E0B87eA02bB6577Fbddda\",\"gas\":\"0x5208\",\"gasPrice\":null,\"maxFeePerGas\":\"0x23e69b56\",\"maxPriorityFeePerGas\":\"0xf4240\",\"value\":\"0xde0b6b3a7640000\",\"nonce\":\"0x0\",\"input\":\"0x\",\"accessList\":[],\"chainId\":\"0x7e7\"}" methodSelector=<nil>
time=2025-04-29T13:07:59.121+08:00 level=INFO msg=SignTransaction api=signer type=response data=02f8738207e780830f42408423e69b568252089454db8d1344208f57d60e0b87ea02bb6577fbddda880de0b6b3a764000080c001a054f351bd86e8768f80aa6faca09198d86b6977ccb7bd983ce50be0c3a8bb2cbda052932b1838644e2d8a2c71dbc58ce4340971e58215b41f19cb72cac0f56f4153 error=<nil>
time=2025-04-29T13:10:37.130+08:00 level=INFO msg=List api=signer type=request metadata="{\"remote\":\"NA\",\"local\":\"NA\",\"scheme\":\"ipc\",\"User-Agent\":\"\",\"Origin\":\"\"}"
time=2025-04-29T13:10:42.024+08:00 level=INFO msg=List api=signer type=response data="[0xe3884CF5d8fc59367A9702CA08295685E825D4f5 0x54db8d1344208f57d60E0B87eA02bB6577Fbddda]"
time=2025-04-29T16:17:02.988+08:00 level=INFO msg=SignTransaction api=signer type=request metadata="{\"remote\":\"NA\",\"local\":\"NA\",\"scheme\":\"ipc\",\"User-Agent\":\"\",\"Origin\":\"\"}" tx="{\"from\":\"0xe3884CF5d8fc59367A9702CA08295685E825D4f5\",\"to\":\"0x54db8d1344208f57d60E0B87eA02bB6577Fbddda\",\"gas\":\"0x5208\",\"gasPrice\":null,\"maxFeePerGas\":\"0xf424e\",\"maxPriorityFeePerGas\":\"0xf4240\",\"value\":\"0x29a2241af62c0000\",\"nonce\":\"0x1\",\"input\":\"0x\",\"accessList\":[],\"chainId\":\"0x7e7\"}" methodSelector=<nil>
time=2025-04-29T16:17:16.965+08:00 level=INFO msg=SignTransaction api=signer type=response data=02f8728207e701830f4240830f424e8252089454db8d1344208f57d60e0b87ea02bb6577fbddda8829a2241af62c000080c080a0644aaec8c287eeeee6cd68febf4588b4f1808f5f0324577894547f8509a1e46ea01be4ae13ba26ac123ef7b82f164d43fc4a82276181f75fb9078cd767ef24a9e2 error=<nil>
time=2025-04-29T16:25:03.763+08:00 level=INFO msg=Version api=signer type=request metadata="{\"remote\":\"NA\",\"local\":\"NA\",\"scheme\":\"ipc\",\"User-Agent\":\"\",\"Origin\":\"\"}"
time=2025-04-29T16:25:03.763+08:00 level=INFO msg=Version api=signer type=response data=6.1.0 error=<nil>
