time=2025-04-25T17:36:54.227+08:00 level=INFO msg=Configured api=signer "audit log"=audit.log
time=2025-04-25T17:37:50.686+08:00 level=INFO msg=Version api=signer type=request metadata="{\"remote\":\"NA\",\"local\":\"NA\",\"scheme\":\"ipc\",\"User-Agent\":\"\",\"Origin\":\"\"}"
time=2025-04-25T17:37:50.686+08:00 level=INFO msg=Version api=signer type=response data=6.1.0 error=<nil>
time=2025-04-25T17:38:17.736+08:00 level=INFO msg=List api=signer type=request metadata="{\"remote\":\"NA\",\"local\":\"NA\",\"scheme\":\"ipc\",\"User-Agent\":\"\",\"Origin\":\"\"}"
time=2025-04-25T17:39:25.326+08:00 level=INFO msg=List api=signer type=request metadata="{\"remote\":\"NA\",\"local\":\"NA\",\"scheme\":\"ipc\",\"User-Agent\":\"\",\"Origin\":\"\"}"
time=2025-04-25T17:40:42.357+08:00 level=INFO msg=List api=signer type=request metadata="{\"remote\":\"NA\",\"local\":\"NA\",\"scheme\":\"ipc\",\"User-Agent\":\"\",\"Origin\":\"\"}"
time=2025-04-25T17:41:31.644+08:00 level=INFO msg=List api=signer type=response data="[0xe3884CF5d8fc59367A9702CA08295685E825D4f5 0x54db8d1344208f57d60E0B87eA02bB6577Fbddda]"
time=2025-04-25T17:41:32.606+08:00 level=INFO msg=List api=signer type=response data="[0xe3884CF5d8fc59367A9702CA08295685E825D4f5 0x54db8d1344208f57d60E0B87eA02bB6577Fbddda]"
time=2025-04-25T17:41:33.211+08:00 level=INFO msg=List api=signer type=response data="[0xe3884CF5d8fc59367A9702CA08295685E825D4f5 0x54db8d1344208f57d60E0B87eA02bB6577Fbddda]"
time=2025-04-25T17:41:50.783+08:00 level=INFO msg=List api=signer type=request metadata="{\"remote\":\"NA\",\"local\":\"NA\",\"scheme\":\"ipc\",\"User-Agent\":\"\",\"Origin\":\"\"}"
time=2025-04-25T17:41:53.490+08:00 level=INFO msg=List api=signer type=response data="[0xe3884CF5d8fc59367A9702CA08295685E825D4f5 0x54db8d1344208f57d60E0B87eA02bB6577Fbddda]"
time=2025-04-25T17:42:37.894+08:00 level=INFO msg=SignTransaction api=signer type=request metadata="{\"remote\":\"NA\",\"local\":\"NA\",\"scheme\":\"ipc\",\"User-Agent\":\"\",\"Origin\":\"\"}" tx="{\"from\":\"0xe3884CF5d8fc59367A9702CA08295685E825D4f5\",\"to\":\"0x54db8d1344208f57d60E0B87eA02bB6577Fbddda\",\"gas\":\"0x5208\",\"gasPrice\":null,\"maxFeePerGas\":\"0x7744d640\",\"maxPriorityFeePerGas\":\"0xf4240\",\"value\":\"0xde0b6b3a7640000\",\"nonce\":\"0x0\",\"input\":\"0x\",\"accessList\":[],\"chainId\":\"0x7e7\"}" methodSelector=<nil>
time=2025-04-25T17:42:52.221+08:00 level=INFO msg=SignTransaction api=signer type=response data=02f8738207e780830f4240847744d6408252089454db8d1344208f57d60e0b87ea02bb6577fbddda880de0b6b3a764000080c001a0e563ff2169bac952819ffa979a5a558bc5542f1eca23793d699c331b59631ca6a02938efd2cb2eeda008def559a3ac87406beab26d202838d3ad6e9a0116b5459b error=<nil>
time=2025-04-25T17:49:16.585+08:00 level=INFO msg=Version api=signer type=request metadata="{\"remote\":\"NA\",\"local\":\"NA\",\"scheme\":\"ipc\",\"User-Agent\":\"\",\"Origin\":\"\"}"
time=2025-04-25T17:49:16.585+08:00 level=INFO msg=Version api=signer type=response data=6.1.0 error=<nil>
